:020000000C29C9
:10000600313083120313FD00FD0B072800000000AA
:020016000800E0
:10001800163083120313FC006C30FD00FD0B122810
:08002800FC0B12280000080087
:080030000000000000000800C0
:1000380083120317AD1B22288613232886172D1B2E
:100048002728061328280617AD1A2C2886122D28CB
:1000580086162D1A312806123228061603136F1831
:100068003728061538280611861518208611031713
:10007800AD1940288613412886172D1945280613DF
:1000880046280617AD184A2886124B2886162D18BA
:100098004F2806125028061603136F185528061500
:1000A800562806118615182086116F1C5D280C200D
:0600B8005E280320080091
:0E00BE008312031727088A0026088200080014
:1000CC00831203136F1003172C08AD001C206F1440
:0200DC0008001A
:1000DE008316031386110611061286120613861353
:1000EE0083128611061186130613861206120C2031
:1000FE000C200C20861606168615182086110C204C
:10010E008615182086110C208615182086110C20B5
:10011E0006128615182086110C20861518208611B9
:10012E00861286178615182086110C208613061641
:10013E0086151820861106128615182086110C2099
:10014E0086151820861106168615182086110C2085
:10015E00061286151820861186170617861606169D
:0C016E008615182086110C206F14080064
:10017A00CF28803083120317A800E228C030A800D5
:10018A00E2289430A800E228D430A800E22880307F
:10019A00A800E228831203172808013A0319BE2887
:1001AA002808023A0319C3282808033A0319C6285B
:1001BA002808043A0319C928CC282903F00028087A
:1001CA00F0077008A8007008AD001C206F10031714
:1001DA00AB012B082A07840000080319FD282B0805
:1001EA002A0784000008AC0066200317AB0AEE2831
:0601FA0003136F1408005E
:100200005F208A110A128000840AA60A0319A70A2D
:08021000F003031D00290800A2
:100218002626013083160313860005108510051164
:1002280085118312051085100511851101300317FA
:10023800A0000030A100013083160313EE00003047
:10024800EF006F2001300317AD001C200C3003179E
:10025800AD001C204D30FB001930FC004F30FD0074
:10026800FD0B3429FC0B3429FB0B3429000000005A
:1002780001300317A8000630A9003E30AA00BD20AF
:1002880002300317A8000630A9003730AA00BD20A5
:100298004D30FB001930FC004F30FD00FD0B52299A
:1002A800FC0B5229FB0B522900000000C330FC0054
:1002B800CD30FD00FD0B5E29FC0B5E2901300317D4
:1002C800A8000630A9003030AA00BD20023003176C
:1002D800A8000630A9002030AA00BD2001308316EE
:1002E800E6000030E7008312ED01EE018316E80115
:1002F800E901EC01ED01EA01EB018316031366083D
:10030800670403199E2AC330FC00CD30FD00FD0BA5
:100318008B29FC0B8B298312061C0D2A1030FB003D
:100328003930FC000D30FD00FD0B9829FC0B982995
:10033800FB0B9829000000000618C4290130831619
:10034800E6000030E7000130EC000030ED008312D9
:10035800ED01EE018316EA01EB01E801E9018312E0
:100368000317A00A0319A10A00302106031DBE299C
:1003780005302006031DC4290130A0000030A1006B
:100388000317061C0D2A2730FB000D30FC00263011
:10039800FD00FD0BCD29FC0BCD29FB0BCD29000061
:1003A800061C0D2A83160313E601E701EC01ED0193
:1003B80001308312ED000030EE008316EA01EB01F4
:1003C800E801E9010130EE000030EF00013083124E
:1003D8000317AD001C2001300317A8000630A90040
:1003E8002730AA00BD2002300317A8000630A90054
:1003F800C930AA00BD201030FB003930FC000D3098
:10040800FD00FD0B052AFC0B052AFB0B052A000045
:100418000000831603136C086D0403199D2A792ABA
:10042800C330FC00CD30FD00FD0B182AFC0B182A48
:10043800023083120317A8000630A900C230AA00B0
:10044800BD208316EC01ED010130E6000030E70025
:100458009C2AC330FC00CD30FD00FD0B312AFC0B7B
:10046800312A023083120317A8000630A900B630DB
:10047800AA00BD208316EC01ED010130E600003032
:10048800E7009C2AC330FC00CD30FD00FD0B4A2A52
:10049800FC0B4A2A023083120317A8000630A90071
:1004A800D130AA00BD208316EC01ED010130E60031
:1004B8000030E7009C2AC330FC00CD30FD00FD0B66
:1004C800632AFC0B632A023083120317A800063044
:1004D800A900DB30AA00BD208316EC01ED01013034
:1004E800E6000030E7009C2A9C2A0030831203179C
:1004F8002106031D812A013020060319142A003021
:100508002106031D892A0230200603192D2A0030EE
:100518002106031D912A033020060319462A0030BC
:100528002106031D992A0430200603195F2A782A18
:100538000D2A8129031383126D086E040319BE2B3B
:10054800C330FC00CD30FD00FD0BA82AFC0BA82A07
:10055800061C232B1030FB003930FC000D30FD0049
:10056800FD0BB42AFC0BB42AFB0BB42A00000000D4
:100578000618EA2A0230FB008630FC009930FD009C
:10058800FD0BC42AFC0BC42AFB0BC42A8316EC01FE
:10059800ED01E601E7010130EA000030EB0001302F
:1005A8008312ED000030EE008316E801E901EE0A3F
:1005B8000319EF0A00306F06031DE42A04306E06A3
:1005C800031DEA2A0130EE000030EF008312061CFA
:1005D800FA2A2730FB000D30FC002630FD00FD0B09
:1005E800F32AFC0BF32AFB0BF32A0000061C232B2F
:1005F8008316EC01ED01E601E701EA01EB01831244
:10060800ED01EE0101308316E8000030E9008312A5
:1006180003172008A4002108A500831603136E08F9
:1006280083120317A200831603136F08831203179C
:10063800A300013083160313EE000030EF00831689
:100648006A086B040319BD2BA22BC330FC00CD3004
:10065800FD00FD0B2D2BFC0B2D2B023083120317F5
:10066800A8000630A900AE30AA00BD200830FB0063
:100678009D30FC000530FD00FD0B402BFC0B402B92
:10068800FB0B402B000000008316EA01EB01013050
:100698008312ED000030EE00BC2BC330FC00CD30DF
:1006A800FD008312FD0B552BFC0B552B0230031755
:1006B800A8000630A9005930AA00BD200830FB0068
:1006C8009D30FC000530FD00FD0B682BFC0B682BF2
:1006D800FB0B682B000000008316EA01EB010130D8
:1006E8008312ED000030EE00BC2BC330FC00CD308F
:1006F800FD008312FD0B7D2BFC0B7D2B02300317B5
:10070800A8000630A9005130AA00BD200830FB001F
:100718009D30FC000530FD00FD0B902BFC0B902B51
:10072800FB0B902B000000008316EA01EB0101305F
:100738008312ED000030EE00BC2BBC2B003083167A
:100748006F06031DA92B01306E060319292B0030F3
:100758006F06031DB12B02306E060319512B0030B2
:100768006F06031DB92B03306E060319792BA12BD5
:10077800232B9E2A83166808690403198C2D0130DF
:1007880083120317AD001C200C300317AD001C208A
:1007980002300317A8000630A9004230AA00BD2085
:1007A800FE2CC330FC00CD30FD000313FD0BD92B0C
:1007B800FC0BD92B0514003003172306031DE62B69
:1007C80001302206031DF42B2E30FB00A930FC005B
:1007D8002F30FD00FD0BEE2BFC0BEE2BFB0BEE2B55
:1007E80000302306031DFA2B02302206031D0A2CB3
:1007F8004D30FB001930FC004F30FD00FD0B022C82
:10080800FC0B022CFB0B022C00000000003023061E
:10081800031D102C03302206031D1E2C6B30FB0019
:100828008930FC007130FD00FD0B182CFC0B182CD6
:10083800FB0B182C202DC330FC00CD30FD00FD0B28
:10084800232CFC0B232C03138514003003172306D9
:10085800031D302C01302206031D3E2C2E30FB00D8
:10086800A930FC002F30FD00FD0B382CFC0B382C78
:10087800FB0B382C00302306031D442C02302206C3
:10088800031D542C4D30FB001930FC004F30FD0087
:10089800FD0B4C2CFC0B4C2CFB0B4C2C00000000D3
:1008A80000302306031D5A2C03302206031D682C32
:1008B8006B30FB008930FC007130FD00FD0B622CB1
:1008C800FC0B622CFB0B622C202DC330FC00CD30BE
:1008D800FD00FD0B6D2CFC0B6D2C03130515003072
:1008E80003172306031D7A2C01302206031D882CCA
:1008F8002E30FB00A930FC002F30FD00FD0B822CB0
:10090800FC0B822CFB0B822C00302306031D8E2C43
:1009180002302206031D9E2C4D30FB001930FC00CE
:100928004F30FD00FD0B962CFC0B962CFB0B962CE8
:100938000000000000302306031DA42C033022060B
:10094800031DB22C6B30FB008930FC007130FD00B8
:10095800FD0BAC2CFC0BAC2CFB0BAC2C202DC330B2
:10096800FC00CD30FD00FD0BB72CFC0BB72C03139E
:100978008515003003172306031DC42C01302206F9
:10098800031DD22C2E30FB00A930FC002F30FD00B7
:10099800FD0BCC2CFC0BCC2CFB0BCC2C00302306F9
:1009A800031DD82C02302206031DE82C4D30FB0015
:1009B8001930FC004F30FD00FD0BE02CFC0BE02C47
:1009C800FB0BE02C0000000000302306031DEE2C7A
:1009D80003302206031DFC2C6B30FB008930FC0021
:1009E8007130FD00FD0BF62CFC0BF62CFB0BF62CE6
:1009F800202D202D031700302506031D052D01305D
:100A080024060319D52B00302506031D0D2D0230B1
:100A1800240603191F2C00302506031D152D03304D
:100A280024060319692C00302506031D1D2D0430EA
:100A380024060319B32CFD2C031385010130031779
:100A4800AD001C201030FB003930FC000D30FD00DB
:100A5800FD0B2C2DFC0B2C2DFB0B2C2D000000006E
:100A680002300317A8000630A9006130AA00BD2093
:100A78004D30FB001930FC004F30FD00FD0B422DBE
:100A8800FC0B422DFB0B422D000000000830FB0040
:100A98009D30FC000530FD00FD0B502DFC0B502D4A
:100AA800FB0B502D0000000001300317A0000030A0
:100AB800A1000130AD001C2001300317A80006304A
:100AC800A900A730AA00BD2002300317A8000630ED
:100AD800A900A030AA00BD208316EC01ED01013069
:100AE800E6000030E700EA01EB018312ED01EE01B8
:100AF8008316E801E9010230FB008630FC009930DA
:100B0800FD00FD0B852DFC0B852DFB0B852DBE2BCC
:040B180081298D2D75
:100C4C00203084004D3083120313F00093300317CF
:100C5C00A6000530A7000021A03084004630F0002B
:0E0C6C00E0300317A6000530A70000210800A5
:0E0B260043346F3472346F346E3461340034F3
:100B3400543461346D3461346E3468346F343A340F
:020B440000347B
:0E0B46004F347034633461346F343A34003409
:0E0B5400563469346E3464346F342134003406
:080B6200423465346D340034A7
:100B6A00443469347334703465346E3473346134A4
:0E0B7A006E3464346F342E342E342E34003436
:100B880047346934673461346E34743465340034FE
:100B98004D3465346434693461346E346F340034F0
:100BA8004134703472346F34763465346934743453
:080BB8006534213421340034BE
:0E0BC00043346F3472346F346E346134003459
:0E0BCE004F347034633461346F343A34003481
:100BDC00503465347134753465346E346F3400348C
:100BEC0043346F3472346F346E34613420345A347D
:080BFC00653472346F340034DB
:0E0C040043346F3472346F346E346134003414
:100C1200503465347134753465346E346F34003455
:100C220042347534643477346534693473346534EA
:040C320072340034E4
:100C360048346F34653467346134613472346434F3
:060C460065346E34003439
:02400E006A2125
:00000001FF
